:100000000C9458000C9480000C9480000C94800098
:100010000C9480000C9480000C9480000C94800060
:100020000C9480000C9480000C9480000C94800050
:100030000C9480000C9480000C9480000C94800040
:100040000C9456040C9480000C9424040C94FE032D
:100050000C9480000C9480000C9480000C94800020
:100060000C94A0040C9480000000000025002800DF
:100070002B00040404040404040402020202020229
:10008000030303030303010204081020408001025C
:1000900004081020010204081020000000080002DB
:1000A0000100000304070000000000000000CE056E
:1000B00011241FBECFEFD8E0DEBFCDBF11E0A0E01E
:1000C000B1E0E2E4FFE002C005900D92A438B10770
:1000D000D9F722E0A4E8B1E001C01D92AB3EB2071F
:1000E000E1F710E0C8E5D0E004C02197FE010E94CE
:1000F0009407C735D107C9F70E9407060C949F07DC
:100100000C940000382F2091400290913F02213240
:1001100008F049C080911C028111FCCF42E040935D
:100120001C0230931B023FEF30931A021092190207
:1001300020931802AFE1B2E048EF51E0FA013E2F00
:10014000341B321718F43D913193F9CF1092F70117
:100150002091F701990F922B9093F7019091F6015E
:10016000913061F41092F6019091F7019093BB00E9
:100170009091BC0093FDF8CF95EC01C095EE909363
:10018000BC0090911C029230E1F390911A029F3FC3
:1001900079F080911A02803241F080911A02803306
:1001A00031F084E005C081E003C082E001C083E05B
:1001B00010921E021092400210921D02089590911A
:1001C0001C029111FCCF91E090931C0290931B02B2
:1001D0002FEF20931A0210921902260F2093180273
:1001E0009093F7019091F701880F892B8093F70185
:1001F0008091F601813061F41092F6018091F7014F
:100200008093BB008091BC0083FDF8CF85EC01C0DA
:1002100085EE8093BC0080911C028130E1F38091D7
:100220001902861710F460911902A8EFB1E026EDCB
:1002300031E0F9018E2F821B861718F48D9181937E
:10024000F9CF862F089590E0FC01E656FF4F2491E8
:10025000FC01EA57FF4F3491FC01EE58FF4FE49147
:10026000EE23B1F1222339F1233091F038F421301B
:10027000A9F0223001F584B58F7D12C0273091F0AE
:100280002830A1F02430B9F4809180008F7D03C024
:10029000809180008F77809380000DC084B58F7728
:1002A00084BD09C08091B0008F7703C08091B000F9
:1002B0008F7D8093B000F0E0EE0FFF1FE859FF4FF5
:1002C000A591B4918FB7F894EC913E2B3C938FBFDE
:1002D0000895CF92DF92EF92FF920F931F93CF93E7
:1002E000DF936C017A018B01C0E0D0E0CE15DF0511
:1002F00089F0D8016D918D01D601ED91FC910190AD
:10030000F081E02DC6010995892B11F47E0102C010
:100310002196ECCFC701DF91CF911F910F91FF90F4
:10032000EF90DF90CF900895FC01538D448D252FE1
:1003300030E0842F90E0821B930B541710F0CF967F
:10034000089501970895FC01918D828D981761F0B1
:10035000828DDF01A80FB11D5D968C91928D9F5FFC
:100360009F73928F90E008958FEF9FEF0895FC01A7
:10037000918D828D981731F0828DE80FF11D858D5A
:1003800090E008958FEF9FEF0895FC01918D228DED
:10039000892F90E0805C9F4F821B91098F73992772
:1003A000089581E492E00E94C50121E0892B09F4BF
:1003B00020E0822F0895FC01848DDF01A80FB11D7C
:1003C000A35ABF4F2C91848D90E001968F7399278B
:1003D000848FA689B7892C93A089B1898C91806478
:1003E0008C93938D848D981306C00288F389E02D39
:1003F00080818F7D80830895EF92FF920F931F93EA
:10040000CF93DF93EC0181E0888F9B8D8C8D9813C7
:1004100005C0E889F989808185FD24C0F62E0B8D01
:1004200010E00F5F1F4F0F731127E02E8C8DE81225
:100430000CC00FB607FCFACFE889F989808185FFE7
:10044000F5CFCE010E94DB01F1CF8B8DFE01E80FCD
:10045000F11DE35AFF4FF0820B8FEA89FB898081FF
:10046000806207C0EE89FF896083E889F98980810D
:100470008064808381E090E0DF91CF911F910F91A4
:10048000FF90EF900895CF93DF93EC01888D882340
:10049000C9F0EA89FB89808185FD05C0A889B989F1
:1004A0008C9186FD0FC00FB607FCF5CF808185FFCC
:1004B000F2CFA889B9898C9185FFEDCFCE010E943A
:1004C000DB01E7CFDF91CF91089580E090E0892BA9
:1004D00029F00E94D10181110C94000008953FB7CA
:1004E000F8948091D0019091D101A091D201B09166
:1004F000D30126B5A89B05C02F3F19F00196A11D79
:10050000B11D3FBFBA2FA92F982F8827820F911DA9
:10051000A11DB11DBC01CD0142E0660F771F881FF0
:10052000991F4A95D1F708958F929F92AF92BF92EB
:10053000CF92DF92EF92FF926B017C010E946F02DB
:100540004B015C01C114D104E104F104F1F00E94FB
:100550006F02DC01CB0188199909AA09BB09883E01
:100560009340A105B10570F321E0C21AD108E1085A
:10057000F10888EE880E83E0981EA11CB11CC114FE
:10058000D104E104F10419F7DDCFFF90EF90DF9083
:10059000CF90BF90AF909F908F90089585ED8093FE
:1005A000BC008091BC0084FDFCCF10921C02089519
:1005B0004091A601262F30E0240F311D2132310554
:1005C000DCF420911C022430C9F4FC0180E090E0AE
:1005D000861758F43091A6012191DC01AC57BE4F2B
:1005E000A30FB11D2C930196F3CF8091A601680F44
:1005F0006093A60180E0089581E0089582E0089567
:100600000895E091D5018091D401E81730F4F0E02D
:10061000EA52FE4F808190E008958FEF9FEF08959A
:100620009091D5018091D401981750F4E92FF0E012
:10063000EA52FE4F208130E09F5F9093D50102C0C7
:100640002FEF3FEFC90108958091D40190E02091F0
:10065000D501821B91090895CF92DF92EF92FF920C
:100660000F931F93CF93DF937C01262F972F8A013F
:1006700080911D02882391F0C62FD72F6E01C40EE2
:10068000D51ECC15DD0571F06991D701ED91FC9176
:100690000190F081E02DC7010995F3CF642F822FDF
:1006A0000E94D802C801DF91CF911F910F91FF9056
:1006B000EF90DF90CF900895CF93DF931F92CDB747
:1006C000DEB7698320911D022223D1F020914002E0
:1006D000203240F021E030E0FC013383228380E0CF
:1006E00090E015C080911E02E82FF0E0E15EFD4F22
:1006F000998190838F5F80931E028093400205C092
:1007000061E0CE0101960E94D80281E090E00F9056
:10071000DF91CF910895CF93C62F9091EA0221E007
:1007200020931D0290933F0210921E0210924002ED
:10073000682F8EED92E00E945C036C2F8EED92E0AC
:100740000E945C0381E0CF910C948200089580E0C8
:1007500090E00895CF93DF939091EA0221E02093F7
:100760001D0290933F0210921E0210924002682FC9
:100770008EED92E00E945C0380E00E94820062E0C5
:100780008091EA020E94DF001092D5018093D4018B
:100790008230A9F78EED92E00E941003EC018EEDFD
:1007A00092E00E94100320E030E0382FC9018C2B2A
:1007B0009D2BDF91CF910895009769F0FC01019086
:1007C0000020E9F73197AF01481B590BBC0181E4C8
:1007D00092E00C94690180E090E00895CF93DF935C
:1007E0000E94DC03EC0184E291E00E94DC038C0FA8
:1007F0009D1FDF91CF9108950E949A071F920F923B
:100800000FB60F9211242F933F934F935F936F93E3
:100810007F938F939F93AF93BF93EF93FF9381E465
:1008200092E00E94DB01FF91EF91BF91AF919F9108
:100830008F917F916F915F914F913F912F910F9089
:100840000FBE0F901F9018951F920F920FB60F9228
:1008500011242F938F939F93EF93FF93E091510275
:10086000F09152028081E0915702F091580282FD8E
:1008700012C0908180915A028F5F8F7320915B022A
:10088000821751F0E0915A02F0E0EF5BFD4F958F37
:1008900080935A0201C08081FF91EF919F918F91C7
:1008A0002F910F900FBE0F901F9018951F920F92CF
:1008B0000FB60F9211242F933F938F939F93AF9373
:1008C000BF938091CC019091CD01A091CE01B091C8
:1008D000CF013091CB0123E0230F2D3720F4019677
:1008E000A11DB11D05C026E8230F0296A11DB11D53
:1008F0002093CB018093CC019093CD01A093CE01A6
:10090000B093CF018091D0019091D101A091D201FB
:10091000B091D3010196A11DB11D8093D001909398
:10092000D101A093D201B093D301BF91AF919F9118
:100930008F913F912F910F900FBE0F901F901895A0
:100940001F920F920FB60F9211242F933F934F9344
:100950005F936F937F938F939F93AF93BF93EF9327
:10096000FF938091B900887F803609F49CC068F5B8
:10097000883209F45BC090F4803109F454C038F433
:10098000882309F4F6C0883009F44DC0F6C08831D8
:1009900009F44CC0803209F45DC0EFC0803409F422
:1009A00068C048F4803309F455C0883309F0E5C0C5
:1009B00080931A02D8C0803509F44FC0883509F4F5
:1009C0005DC0883409F0D9C0D6C0883909F4C7C0E1
:1009D000A8F4883709F467C038F4883609F463C08E
:1009E000803709F460C0C9C0883809F4B8C08039BC
:1009F00009F45FC0803809F0C0C05BC0803B09F4D7
:100A000086C038F4803A09F466C0883A09F47FC099
:100A1000B4C0803C09F4A7C0883C09F4A4C0883B5A
:100A200009F48AC0AAC08091F70110C09091190200
:100A300080911802981770F5E091190281E08E0FED
:100A400080931902F0E0E850FE4F80818093BB0054
:100A500085EC86C080931A028EC0E091190281E075
:100A60008E0F809319028091BB00F0E0E850FE4F9A
:100A7000808390911902809118026EC0E091190252
:100A800081E08E0F809319028091BB00F0E0E85066
:100A9000FE4F808380911B0281116DC081E08093A5
:100AA000F60184EA61C083E080931C021092CA01BF
:100AB000CFCF8091CA01803208F051C0E091CA01C5
:100AC00081E08E0F8093CA018091BB00F0E0E65573
:100AD000FE4F8083BDCF85EC8093BC0010921C023A
:100AE0008091CA01803230F4E091CA01F0E0E6550D
:100AF000FE4F10826091CA0170E0E091A801F09170
:100B0000A9018AEA91E009951092CA0136C084E0F1
:100B100080931C021092A7011092A601E091A401FB
:100B2000F091A50109958091A601811105C081E090
:100B30008093A60110928401E091A70181E08E0FBD
:100B40008093A701F0E0EC57FE4F80818093BB00BB
:100B50009091A7018091A601981708F479CF85E8B4
:100B60008093BC000AC085EC8093BC0010921C02EC
:100B700004C010921A020E94CE02FF91EF91BF9121
:100B8000AF919F918F917F916F915F914F913F9125
:100B90002F910F900FBE0F901F901895E1E4F2E097
:100BA0001382128288EE93E0A0E0B0E08483958304
:100BB000A683B78324E031E03183208325EC30E045
:100BC0003587248724EC30E03787268720EC30E017
:100BD000318B208B21EC30E0338B228B22EC30E008
:100BE000358B248B26EC30E0378B268B118E128EC2
:100BF000138E148EEEEDF2E01382128284839583BD
:100C0000A683B78386E191E0918380830895CF9393
:100C1000DF93CDB7DEB7A1970FB6F894DEBF0FBE56
:100C2000CDBF789484B5826084BD84B5816084BD75
:100C300085B5826085BD85B5816085BD80916E007A
:100C4000816080936E0010928100809181008260AB
:100C500080938100809181008160809381008091E8
:100C600080008160809380008091B10084608093D7
:100C7000B1008091B00081608093B00080917A00D3
:100C8000846080937A0080917A00826080937A00F9
:100C900080917A00816080937A0080917A008068E8
:100CA00080937A001092C100E0915102F0915202BB
:100CB00082E08083E0914D02F0914E021082E0913B
:100CC0004F02F09150028FEC808310925902E09114
:100CD0005502F091560286E08083E0915302F09134
:100CE0005402808180618083E0915302F09154022C
:100CF000808188608083E0915302F091540280816A
:100D000080688083E0915302F091540280818F7D4E
:100D1000808387E291E00E94EE031092D501109249
:100D2000D40110921E021092400210921C0211E097
:100D300010931B021092F60182E10E94230183E1CD
:100D40000E9423018091B9008E7F8093B900809129
:100D5000B9008D7F8093B90088E48093B80085E462
:100D60008093BC008AE58093EA0263E680E80E94F3
:100D70008B0361E070E080E090E00E94940260E00C
:100D80008EE50E948B038091EA0210931D028093EE
:100D90003F0210921E02109240026DE58EED92E02D
:100DA0000E945C0380E00E94820061E08091EA0280
:100DB0000E94DF001092D5018093D4018130A9F701
:100DC0008EED92E00E941003843209F086C011E497
:100DD0006CE0812F0E948B0366E081E0810F0E940E
:100DE0008B031E5F1935A1F761E08BE20E948B0334
:100DF00061E08CE20E948B036EE08DE20E948B0327
:100E000060E08EE20E948B0361E08FE20E948B0320
:100E100065E080E30E948B0361E081E30E948B0325
:100E200060E082E30E948B0360E083E30E948B0317
:100E300060E084E30E948B0360E085E30E948B0303
:100E400060E08BE50E948B0360E28CE50E948B03DF
:100E500060EB8DE50E948B036FE88EE50E948B03AB
:100E600084E591E00E94EE038AE0882E912CA12C6B
:100E7000B12C14E0812F0E94AA039C0140E050E0B5
:100E800019A2CE0181967C01CA01B901A501940184
:100E90000E947207605DF70162937F0121153105A1
:100EA0004105510589F7CF010E94DC03812F0E9483
:100EB000AA0382E691E00E94DC031E5F1C31D1F69A
:100EC00084E291E00E94DC0364E670E080E090E060
:100ED0000E9494020E946502CCCF84E691E00E94B9
:100EE000EE03FFCFA1E21A2EAA1BBB1BFD010DC012
:100EF000AA1FBB1FEE1FFF1FA217B307E407F507CA
:100F000020F0A21BB30BE40BF50B661F771F881FA5
:100F1000991F1A9469F760957095809590959B013B
:100F2000AC01BD01CF010895EE0FFF1F0590F491B4
:100F3000E02D099481E090E0F8940C949F07F894D8
:020F4000FFCFE1
:100F420000000000FC01690194014302C501A301F4
:100F5200B701000000005C032C03A7030003240375
:100F6200100301030D0A0041646166727569742001
:100F72004D50523132312043617061636974697638
:100F82006520546F7563682073656E736F72207489
:100F9200657374004D505231323120666F756E6444
:100FA200210009004D5052313231206E6F7420669B
:100FB2006F756E642C20636865636B207769726954
:040FC2006E673F0017
:107800000C94343C0C94513C0C94513C0C94513CE1
:107810000C94513C0C94513C0C94513C0C94513CB4
:107820000C94513C0C94513C0C94513C0C94513CA4
:107830000C94513C0C94513C0C94513C0C94513C94
:107840000C94513C0C94513C0C94513C0C94513C84
:107850000C94513C0C94513C0C94513C0C94513C74
:107860000C94513C0C94513C11241FBECFEFD8E036
:10787000DEBFCDBF11E0A0E0B1E0ECE9FFE702C060
:1078800005900D92A230B107D9F712E0A2E0B1E065
:1078900001C01D92AD30B107E1F70E942D3D0C945F
:1078A000CC3F0C94003C982F959595959595959582
:1078B000905D8F708A307CF0282F295A8091C0000B
:1078C00085FFFCCF9093C6008091C00085FFFCCF60
:1078D0002093C6000895282F205DF0CF982F809127
:1078E000C00085FFFCCF9093C6000895EF92FF92F1
:1078F0000F931F93EE24FF2487018091C00087FD22
:1079000017C00894E11CF11C011D111D81E4E8164B
:1079100082E4F8068FE0080780E0180770F3E09132
:107920000401F091050109958091C00087FFE9CF1E
:107930008091C6001F910F91FF90EF9008950E94D3
:10794000763C982F8091C00085FFFCCF9093C600B5
:1079500091362CF490330CF09053892F089597555D
:10796000892F08951F930E949F3C182F0E949F3CCF
:107970001295107F810F1F9108951F93182F882350
:1079800021F00E94763C1150E1F71F9108951F935A
:10799000182F0E94763C803249F0809103018F5F5E
:1079A000809303018530C1F01F9108958091C0003C
:1079B00085FFFCCF84E18093C6008091C00085FFE5
:1079C000FCCF1093C6008091C00085FFFCCF80E102
:1079D0008093C6001F910895E0910401F091050184
:1079E00009951F9108950E94763C803241F0809164
:1079F00003018F5F80930301853081F008958091AA
:107A0000C00085FFFCCF84E18093C6008091C00058
:107A100085FFFCCF80E18093C6000895E0910401CA
:107A2000F09105010995089540E951E08823A1F0FE
:107A30002D9A28EE33E0FA013197F1F721503040CA
:107A4000D1F72D9828EE33E0FA013197F1F7215064
:107A50003040D1F7815061F708953F924F925F9285
:107A60006F927F928F929F92AF92BF92CF92DF924E
:107A7000EF92FF920F931F93CF93DF93000080E16B
:107A80008093C4001092C50088E18093C10086E015
:107A90008093C2005098589A259A81E00E94143D24
:107AA00024E1F22E9EE1E92E85E9D82E0FE0C02ECA
:107AB00010E1B12EAA24A394B1E49B2EA6E58A2E50
:107AC000F2E57F2EE0E26E2E79E4572E63E5462E36
:107AD00050E5352E0E94763C8033B1F18133B9F107
:107AE000803409F46FC0813409F476C0823409F41B
:107AF00085C0853409F488C0803531F1823521F1A3
:107B0000813511F1853509F485C0863509F48DC0BC
:107B1000843609F496C0843709F403C1853709F423
:107B200072C1863709F466C0809103018F5F80932C
:107B30000301853079F6E0910401F0910501099582
:107B40000E94763C803351F60E94F33CC3CF0E94E2
:107B5000763C803249F78091C00085FFFCCFF092DF
:107B6000C6008091C00085FFFCCF9092C600809136
:107B7000C00085FFFCCF8092C6008091C00085FFC9
:107B8000FCCF7092C6008091C00085FFFCCF609250
:107B9000C6008091C00085FFFCCF5092C600809146
:107BA000C00085FFFCCF4092C6008091C00085FFD9
:107BB000FCCF3092C6008091C00085FFFCCFB09210
:107BC000C60088CF0E94763C863808F4BDCF0E945C
:107BD000763C0E94F33C7ECF0E94763C803809F4CC
:107BE0009CC0813809F40BC1823809F43CC1883942
:107BF00009F48FC080E00E94C73C6CCF84E10E94F2
:107C0000BD3C0E94F33C66CF85E00E94BD3C0E94D3
:107C1000F33C60CF0E94763C809306010E94763C44
:107C2000809307010E94F33C55CF0E94763C80333D
:107C300009F41DC183E00E94BD3C80E00E94C73C66
:107C400049CF0E94763C809309020E94763C809343
:107C5000080280910C028E7F80930C020E94763C79
:107C6000853409F415C18091080290910902892B8D
:107C700089F000E010E00E94763CF801E85FFE4FDA
:107C800080830F5F1F4F80910802909109020817AF
:107C9000190788F30E94763C803209F045CF809125
:107CA0000C0280FF01C16091060170910701660F0F
:107CB000771F7093070160930601A0910802B091AD
:107CC00009021097C9F0E8E0F1E09B01AD014E0F09
:107CD0005F1FF999FECF32BD21BD819180BDFA9A17
:107CE000F99A2F5F3F4FE417F50799F76A0F7B1F4B
:107CF00070930701609306018091C00085FFFCCF5F
:107D0000F092C6008091C00085FFFCCFB092C60003
:107D1000E1CE83E00E94C73CDDCE82E00E94C73CFA
:107D2000D9CE0E94763C809309020E94763C8093D3
:107D300008028091060190910701880F991F909386
:107D40000701809306010E94763C853409F4A6C0A1
:107D500080910C028E7F80930C020E94763C8032D0
:107D600009F0B8CE8091C00085FFFCCFF092C6002C
:107D7000609108027091090261157105B9F140E046
:107D800050E080910C02A82FA170B82FB27011C0E2
:107D9000BB2309F45CC0E0910601F0910701319624
:107DA000F0930701E09306014F5F5F4F46175707B7
:107DB000E8F4AA2369F3F999FECF209106013091E6
:107DC000070132BD21BDF89A90B58091C00085FFB2
:107DD000FCCF9093C6002F5F3F4F30930701209355
:107DE00006014F5F5F4F4617570718F38091C00099
:107DF00085FDE5CE8091C00085FFF8CFE0CE81E023
:107E00000E94C73C67CE0E94763C803209F08CCE3F
:107E10008091C00085FFFCCFF092C6008091C00029
:107E200085FFFCCFE092C6008091C00085FFFCCFAB
:107E3000D092C6008091C00085FFFCCFC092C600E2
:107E40008091C00085FFFCCFB092C60043CEE09188
:107E50000601F091070194918091C00085FFFCCF4D
:107E60009093C6009CCF80E10E94C73C33CE0E9415
:107E7000763C0E94763C182F0E94763C112309F430
:107E800083C0113009F484C08FE00E94C73C22CE29
:107E900080910C02816080930C02E5CE80910C02EF
:107EA000816080930C0259CF809107018823880F4D
:107EB000880B8A2180930B02809106019091070123
:107EC000880F991F90930701809306018091080203
:107ED00080FF09C080910802909109020196909359
:107EE000090280930802F894F999FECF1127E091D6
:107EF0000601F0910701C8E0D1E08091080290915D
:107F00000902103091F40091570001700130D9F34B
:107F100003E000935700E89500915700017001308D
:107F2000D9F301E100935700E89509901990009169
:107F3000570001700130D9F301E000935700E89534
:107F40001395103498F011270091570001700130FB
:107F5000D9F305E000935700E895009157000170B0
:107F60000130D9F301E100935700E895329602976A
:107F700009F0C7CF103011F00296E5CF112480919F
:107F8000C00085FFB9CEBCCE8EE10E94C73CA2CD19
:0C7F900085E90E94C73C9ECDF894FFCF0D
:027F9C00800063
:040000030000780081
:00000001FF
